{
	"Lottery.sol": {
		"Lottery": {
			"abi": [
				{
					"inputs": [],
					"stateMutability": "nonpayable",
					"type": "constructor"
				},
				{
					"inputs": [],
					"name": "getBalance",
					"outputs": [
						{
							"internalType": "uint256",
							"name": "",
							"type": "uint256"
						}
					],
					"stateMutability": "view",
					"type": "function"
				},
				{
					"inputs": [],
					"name": "manager",
					"outputs": [
						{
							"internalType": "address",
							"name": "",
							"type": "address"
						}
					],
					"stateMutability": "view",
					"type": "function"
				},
				{
					"inputs": [
						{
							"internalType": "uint256",
							"name": "",
							"type": "uint256"
						}
					],
					"name": "participants",
					"outputs": [
						{
							"internalType": "address payable",
							"name": "",
							"type": "address"
						}
					],
					"stateMutability": "view",
					"type": "function"
				},
				{
					"inputs": [],
					"name": "random",
					"outputs": [
						{
							"internalType": "uint256",
							"name": "",
							"type": "uint256"
						}
					],
					"stateMutability": "view",
					"type": "function"
				},
				{
					"inputs": [],
					"name": "selectWinner",
					"outputs": [],
					"stateMutability": "nonpayable",
					"type": "function"
				},
				{
					"stateMutability": "payable",
					"type": "receive"
				}
			],
			"devdoc": {
				"kind": "dev",
				"methods": {},
				"version": 1
			},
			"evm": {
				"assembly": "    /* \"Lottery.sol\":72:1239  contract Lottery {\r... */\n  mstore(0x40, 0x80)\n    /* \"Lottery.sol\":177:250  constructor() {\r... */\n  callvalue\n  dup1\n  iszero\n  tag_1\n  jumpi\n  0x00\n  dup1\n  revert\ntag_1:\n  pop\n    /* \"Lottery.sol\":202:209  manager */\n  0x00\n    /* \"Lottery.sol\":202:220  manager=msg.sender */\n  dup1\n  sload\n  not(sub(shl(0xa0, 0x01), 0x01))\n  and\n    /* \"Lottery.sol\":210:220  msg.sender */\n  caller\n    /* \"Lottery.sol\":202:220  manager=msg.sender */\n  or\n  swap1\n  sstore\n    /* \"Lottery.sol\":72:1239  contract Lottery {\r... */\n  dataSize(sub_0)\n  dup1\n  dataOffset(sub_0)\n  0x00\n  codecopy\n  0x00\n  return\nstop\n\nsub_0: assembly {\n        /* \"Lottery.sol\":72:1239  contract Lottery {\r... */\n      mstore(0x40, 0x80)\n      jumpi(tag_1, lt(calldatasize, 0x04))\n      shr(0xe0, calldataload(0x00))\n      dup1\n      0x12065fe0\n      eq\n      tag_3\n      jumpi\n      dup1\n      0x33a99e04\n      eq\n      tag_4\n      jumpi\n      dup1\n      0x35c1d349\n      eq\n      tag_5\n      jumpi\n      dup1\n      0x481c6a75\n      eq\n      tag_6\n      jumpi\n      dup1\n      0x5ec01e4d\n      eq\n      tag_7\n      jumpi\n      0x00\n      dup1\n      revert\n    tag_1:\n      jumpi(tag_2, calldatasize)\n        /* \"Lottery.sol\":349:358  msg.value */\n      callvalue\n        /* \"Lottery.sol\":360:367  1 ether */\n      0x0de0b6b3a7640000\n        /* \"Lottery.sol\":349:367  msg.value==1 ether */\n      eq\n        /* \"Lottery.sol\":341:368  require(msg.value==1 ether) */\n      tag_10\n      jumpi\n      0x00\n      dup1\n      revert\n    tag_10:\n        /* \"Lottery.sol\":422:434  participants */\n      0x01\n        /* \"Lottery.sol\":422:460  participants.push(payable(msg.sender)) */\n      dup1\n      sload\n      dup1\n      dup3\n      add\n      dup3\n      sstore\n      0x00\n      swap2\n      swap1\n      swap2\n      mstore\n      0xb10e2d527612073b26eecdfd717e6a320cf44b4afac2b0732d9fcbe2b7fa0cf6\n      add\n      dup1\n      sload\n      not(sub(shl(0xa0, 0x01), 0x01))\n      and\n        /* \"Lottery.sol\":448:458  msg.sender */\n      caller\n        /* \"Lottery.sol\":422:460  participants.push(payable(msg.sender)) */\n      or\n      swap1\n      sstore\n        /* \"Lottery.sol\":72:1239  contract Lottery {\r... */\n      stop\n    tag_2:\n      0x00\n      dup1\n      revert\n        /* \"Lottery.sol\":478:650  function getBalance() public view returns(uint ){\r... */\n    tag_3:\n      callvalue\n      dup1\n      iszero\n      tag_12\n      jumpi\n      0x00\n      dup1\n      revert\n    tag_12:\n      pop\n      tag_13\n      tag_14\n      jump\t// in\n    tag_13:\n      mload(0x40)\n        /* \"#utility.yul\":1094:1119   */\n      swap1\n      dup2\n      mstore\n        /* \"#utility.yul\":1082:1084   */\n      0x20\n        /* \"#utility.yul\":1067:1085   */\n      add\n        /* \"Lottery.sol\":478:650  function getBalance() public view returns(uint ){\r... */\n    tag_15:\n      mload(0x40)\n      dup1\n      swap2\n      sub\n      swap1\n      return\n        /* \"Lottery.sol\":858:1218  function selectWinner() public {\r... */\n    tag_4:\n      callvalue\n      dup1\n      iszero\n      tag_17\n      jumpi\n      0x00\n      dup1\n      revert\n    tag_17:\n      pop\n      tag_18\n      tag_19\n      jump\t// in\n    tag_18:\n      stop\n        /* \"Lottery.sol\":125:164  address payable [] public  participants */\n    tag_5:\n      callvalue\n      dup1\n      iszero\n      tag_20\n      jumpi\n      0x00\n      dup1\n      revert\n    tag_20:\n      pop\n      tag_21\n      tag_22\n      calldatasize\n      0x04\n      tag_23\n      jump\t// in\n    tag_22:\n      tag_24\n      jump\t// in\n    tag_21:\n      mload(0x40)\n      sub(shl(0xa0, 0x01), 0x01)\n        /* \"#utility.yul\":680:712   */\n      swap1\n      swap2\n      and\n        /* \"#utility.yul\":662:713   */\n      dup2\n      mstore\n        /* \"#utility.yul\":650:652   */\n      0x20\n        /* \"#utility.yul\":635:653   */\n      add\n        /* \"Lottery.sol\":125:164  address payable [] public  participants */\n      tag_15\n        /* \"#utility.yul\":617:719   */\n      jump\n        /* \"Lottery.sol\":96:118  address public manager */\n    tag_6:\n      callvalue\n      dup1\n      iszero\n      tag_27\n      jumpi\n      0x00\n      dup1\n      revert\n    tag_27:\n      pop\n      sload(0x00)\n      tag_21\n      swap1\n      sub(shl(0xa0, 0x01), 0x01)\n      and\n      dup2\n      jump\n        /* \"Lottery.sol\":658:850  function random() public view  returns(uint) {\r... */\n    tag_7:\n      callvalue\n      dup1\n      iszero\n      tag_32\n      jumpi\n      0x00\n      dup1\n      revert\n    tag_32:\n      pop\n        /* \"Lottery.sol\":794:806  participants */\n      0x01\n        /* \"Lottery.sol\":794:813  participants.length */\n      sload\n        /* \"Lottery.sol\":743:814  abi.encodePacked(block.difficulty, block.timestamp,participants.length) */\n      0x40\n      dup1\n      mload\n        /* \"Lottery.sol\":760:776  block.difficulty */\n      difficulty\n        /* \"Lottery.sol\":743:814  abi.encodePacked(block.difficulty, block.timestamp,participants.length) */\n      0x20\n      dup1\n      dup4\n      add\n        /* \"#utility.yul\":384:403   */\n      swap2\n      swap1\n      swap2\n      mstore\n        /* \"Lottery.sol\":778:793  block.timestamp */\n      timestamp\n        /* \"#utility.yul\":419:431   */\n      dup3\n      dup5\n      add\n        /* \"#utility.yul\":412:440   */\n      mstore\n        /* \"#utility.yul\":456:468   */\n      0x60\n      dup1\n      dup4\n      add\n        /* \"#utility.yul\":449:477   */\n      swap5\n      swap1\n      swap5\n      mstore\n        /* \"Lottery.sol\":743:814  abi.encodePacked(block.difficulty, block.timestamp,participants.length) */\n      dup3\n      mload\n      dup1\n      dup4\n      sub\n      swap1\n      swap5\n      add\n      dup5\n      mstore\n        /* \"#utility.yul\":493:505   */\n      0x80\n      swap1\n      swap2\n      add\n        /* \"Lottery.sol\":743:814  abi.encodePacked(block.difficulty, block.timestamp,participants.length) */\n      swap1\n      swap2\n      mstore\n        /* \"Lottery.sol\":733:815  keccak256(abi.encodePacked(block.difficulty, block.timestamp,participants.length)) */\n      dup2\n      mload\n      swap2\n      add\n      keccak256\n        /* \"Lottery.sol\":658:850  function random() public view  returns(uint) {\r... */\n      jump(tag_13)\n        /* \"Lottery.sol\":478:650  function getBalance() public view returns(uint ){\r... */\n    tag_14:\n        /* \"Lottery.sol\":520:524  uint */\n      0x00\n        /* \"Lottery.sol\":559:566  manager */\n      dup1\n      sload\n      sub(shl(0xa0, 0x01), 0x01)\n      and\n        /* \"Lottery.sol\":545:555  msg.sender */\n      caller\n        /* \"Lottery.sol\":545:566  msg.sender == manager */\n      eq\n        /* \"Lottery.sol\":537:567  require(msg.sender == manager) */\n      tag_37\n      jumpi\n      0x00\n      dup1\n      revert\n    tag_37:\n      pop\n        /* \"Lottery.sol\":585:606  address(this).balance */\n      selfbalance\n      swap1\n        /* \"Lottery.sol\":478:650  function getBalance() public view returns(uint ){\r... */\n      jump\t// out\n        /* \"Lottery.sol\":858:1218  function selectWinner() public {\r... */\n    tag_19:\n        /* \"Lottery.sol\":922:929  manager */\n      and(sub(shl(0xa0, 0x01), 0x01), sload(0x00))\n        /* \"Lottery.sol\":908:918  msg.sender */\n      caller\n        /* \"Lottery.sol\":908:929  msg.sender == manager */\n      eq\n        /* \"Lottery.sol\":900:930  require(msg.sender == manager) */\n      tag_39\n      jumpi\n      0x00\n      dup1\n      revert\n    tag_39:\n        /* \"Lottery.sol\":949:961  participants */\n      0x01\n        /* \"Lottery.sol\":949:968  participants.length */\n      sload\n        /* \"Lottery.sol\":970:971  3 */\n      0x03\n      gt\n        /* \"Lottery.sol\":949:971  participants.length>=3 */\n      iszero\n        /* \"Lottery.sol\":941:972  require(participants.length>=3) */\n      tag_40\n      jumpi\n      0x00\n      dup1\n      revert\n    tag_40:\n        /* \"Lottery.sol\":983:989  uint r */\n      0x00\n        /* \"Lottery.sol\":990:998  random() */\n      tag_41\n        /* \"Lottery.sol\":794:806  participants */\n      0x01\n        /* \"Lottery.sol\":794:813  participants.length */\n      sload\n        /* \"Lottery.sol\":743:814  abi.encodePacked(block.difficulty, block.timestamp,participants.length) */\n      0x40\n      dup1\n      mload\n        /* \"Lottery.sol\":760:776  block.difficulty */\n      difficulty\n        /* \"Lottery.sol\":743:814  abi.encodePacked(block.difficulty, block.timestamp,participants.length) */\n      0x20\n      dup1\n      dup4\n      add\n        /* \"#utility.yul\":384:403   */\n      swap2\n      swap1\n      swap2\n      mstore\n        /* \"Lottery.sol\":778:793  block.timestamp */\n      timestamp\n        /* \"#utility.yul\":419:431   */\n      dup3\n      dup5\n      add\n        /* \"#utility.yul\":412:440   */\n      mstore\n        /* \"#utility.yul\":456:468   */\n      0x60\n      dup1\n      dup4\n      add\n        /* \"#utility.yul\":449:477   */\n      swap5\n      swap1\n      swap5\n      mstore\n        /* \"Lottery.sol\":743:814  abi.encodePacked(block.difficulty, block.timestamp,participants.length) */\n      dup3\n      mload\n      dup1\n      dup4\n      sub\n      swap1\n      swap5\n      add\n      dup5\n      mstore\n        /* \"#utility.yul\":493:505   */\n      0x80\n      swap1\n      swap2\n      add\n        /* \"Lottery.sol\":743:814  abi.encodePacked(block.difficulty, block.timestamp,participants.length) */\n      swap1\n      swap2\n      mstore\n        /* \"Lottery.sol\":733:815  keccak256(abi.encodePacked(block.difficulty, block.timestamp,participants.length)) */\n      dup2\n      mload\n      swap2\n      add\n      keccak256\n      swap1\n        /* \"Lottery.sol\":658:850  function random() public view  returns(uint) {\r... */\n      jump\n        /* \"Lottery.sol\":990:998  random() */\n    tag_41:\n        /* \"Lottery.sol\":1060:1072  participants */\n      0x01\n        /* \"Lottery.sol\":1060:1079  participants.length */\n      sload\n        /* \"Lottery.sol\":983:998  uint r=random() */\n      swap1\n      swap2\n      pop\n        /* \"Lottery.sol\":1009:1032  address payable  winner */\n      0x00\n      swap1\n      dup2\n      swap1\n        /* \"Lottery.sol\":1056:1079  r % participants.length */\n      tag_42\n      swap1\n        /* \"Lottery.sol\":983:998  uint r=random() */\n      dup5\n        /* \"Lottery.sol\":1056:1079  r % participants.length */\n      tag_43\n      jump\t// in\n    tag_42:\n        /* \"Lottery.sol\":1043:1079  uint index = r % participants.length */\n      swap1\n      pop\n        /* \"Lottery.sol\":1099:1111  participants */\n      0x01\n        /* \"Lottery.sol\":1112:1117  index */\n      dup2\n        /* \"Lottery.sol\":1099:1118  participants[index] */\n      dup2\n      sload\n      dup2\n      lt\n      tag_45\n      jumpi\n      tag_45\n      tag_46\n      jump\t// in\n    tag_45:\n      0x00\n      swap2\n      dup3\n      mstore\n      0x20\n      swap1\n      swap2\n      keccak256\n      add\n      sload\n      sub(shl(0xa0, 0x01), 0x01)\n      and\n      swap2\n      pop\n      dup2\n        /* \"Lottery.sol\":1129:1158  winner.transfer(getBalance()) */\n      0x08fc\n        /* \"Lottery.sol\":1145:1157  getBalance() */\n      tag_48\n        /* \"Lottery.sol\":1145:1155  getBalance */\n      tag_14\n        /* \"Lottery.sol\":1145:1157  getBalance() */\n      jump\t// in\n    tag_48:\n        /* \"Lottery.sol\":1129:1158  winner.transfer(getBalance()) */\n      mload(0x40)\n      dup2\n      iszero\n      swap1\n      swap3\n      mul\n      swap2\n      0x00\n      dup2\n      dup2\n      dup2\n      dup6\n      dup9\n      dup9\n      call\n      swap4\n      pop\n      pop\n      pop\n      pop\n      iszero\n      dup1\n      iszero\n      tag_50\n      jumpi\n      returndatasize\n      0x00\n      dup1\n      returndatacopy\n      revert(0x00, returndatasize)\n    tag_50:\n      pop\n        /* \"Lottery.sol\":1184:1208  new address payable[](0) */\n      0x40\n      dup1\n      mload\n        /* \"Lottery.sol\":1206:1207  0 */\n      0x00\n        /* \"Lottery.sol\":1184:1208  new address payable[](0) */\n      dup2\n      mstore\n      0x20\n      dup2\n      add\n      swap2\n      dup3\n      swap1\n      mstore\n        /* \"Lottery.sol\":1171:1208  participants=new address payable[](0) */\n      mload\n      tag_55\n      swap2\n        /* \"Lottery.sol\":1171:1183  participants */\n      0x01\n      swap2\n        /* \"Lottery.sol\":1171:1208  participants=new address payable[](0) */\n      tag_56\n      jump\t// in\n    tag_55:\n      pop\n        /* \"Lottery.sol\":889:1218  {\r... */\n      pop\n      pop\n      pop\n        /* \"Lottery.sol\":858:1218  function selectWinner() public {\r... */\n      jump\t// out\n        /* \"Lottery.sol\":125:164  address payable [] public  participants */\n    tag_24:\n      0x01\n      dup2\n      dup2\n      sload\n      dup2\n      lt\n      tag_57\n      jumpi\n      0x00\n      dup1\n      revert\n    tag_57:\n      0x00\n      swap2\n      dup3\n      mstore\n      0x20\n      swap1\n      swap2\n      keccak256\n      add\n      sload\n      sub(shl(0xa0, 0x01), 0x01)\n      and\n      swap1\n      pop\n      dup2\n      jump\t// out\n    tag_56:\n      dup3\n      dup1\n      sload\n      dup3\n      dup3\n      sstore\n      swap1\n      0x00\n      mstore\n      keccak256(0x00, 0x20)\n      swap1\n      dup2\n      add\n      swap3\n      dup3\n      iszero\n      tag_64\n      jumpi\n      swap2\n      0x20\n      mul\n      dup3\n      add\n    tag_63:\n      dup3\n      dup2\n      gt\n      iszero\n      tag_64\n      jumpi\n      dup3\n      mload\n      dup3\n      sload\n      not(sub(shl(0xa0, 0x01), 0x01))\n      and\n      sub(shl(0xa0, 0x01), 0x01)\n      swap1\n      swap2\n      and\n      or\n      dup3\n      sstore\n      0x20\n      swap1\n      swap3\n      add\n      swap2\n      0x01\n      swap1\n      swap2\n      add\n      swap1\n      jump(tag_63)\n    tag_64:\n      pop\n      tag_65\n      swap3\n      swap2\n      pop\n      tag_66\n      jump\t// in\n    tag_65:\n      pop\n      swap1\n      jump\t// out\n    tag_66:\n    tag_67:\n      dup1\n      dup3\n      gt\n      iszero\n      tag_65\n      jumpi\n      0x00\n      dup2\n      sstore\n      0x01\n      add\n      jump(tag_67)\n        /* \"#utility.yul\":14:194   */\n    tag_23:\n        /* \"#utility.yul\":73:79   */\n      0x00\n        /* \"#utility.yul\":126:128   */\n      0x20\n        /* \"#utility.yul\":114:123   */\n      dup3\n        /* \"#utility.yul\":105:112   */\n      dup5\n        /* \"#utility.yul\":101:124   */\n      sub\n        /* \"#utility.yul\":97:129   */\n      slt\n        /* \"#utility.yul\":94:96   */\n      iszero\n      tag_71\n      jumpi\n        /* \"#utility.yul\":142:143   */\n      0x00\n        /* \"#utility.yul\":139:140   */\n      dup1\n        /* \"#utility.yul\":132:144   */\n      revert\n        /* \"#utility.yul\":94:96   */\n    tag_71:\n      pop\n        /* \"#utility.yul\":165:188   */\n      calldataload\n      swap2\n        /* \"#utility.yul\":84:194   */\n      swap1\n      pop\n      jump\t// out\n        /* \"#utility.yul\":1130:1339   */\n    tag_43:\n        /* \"#utility.yul\":1162:1163   */\n      0x00\n        /* \"#utility.yul\":1188:1189   */\n      dup3\n        /* \"#utility.yul\":1178:1180   */\n      tag_77\n      jumpi\n        /* \"#utility.yul\":1232:1242   */\n      0x4e487b71\n        /* \"#utility.yul\":1227:1230   */\n      0xe0\n        /* \"#utility.yul\":1223:1243   */\n      shl\n        /* \"#utility.yul\":1220:1221   */\n      0x00\n        /* \"#utility.yul\":1213:1244   */\n      mstore\n        /* \"#utility.yul\":1267:1271   */\n      0x12\n        /* \"#utility.yul\":1264:1265   */\n      0x04\n        /* \"#utility.yul\":1257:1272   */\n      mstore\n        /* \"#utility.yul\":1295:1299   */\n      0x24\n        /* \"#utility.yul\":1292:1293   */\n      0x00\n        /* \"#utility.yul\":1285:1300   */\n      revert\n        /* \"#utility.yul\":1178:1180   */\n    tag_77:\n      pop\n        /* \"#utility.yul\":1324:1333   */\n      mod\n      swap1\n        /* \"#utility.yul\":1168:1339   */\n      jump\t// out\n        /* \"#utility.yul\":1344:1471   */\n    tag_46:\n        /* \"#utility.yul\":1405:1415   */\n      0x4e487b71\n        /* \"#utility.yul\":1400:1403   */\n      0xe0\n        /* \"#utility.yul\":1396:1416   */\n      shl\n        /* \"#utility.yul\":1393:1394   */\n      0x00\n        /* \"#utility.yul\":1386:1417   */\n      mstore\n        /* \"#utility.yul\":1436:1440   */\n      0x32\n        /* \"#utility.yul\":1433:1434   */\n      0x04\n        /* \"#utility.yul\":1426:1441   */\n      mstore\n        /* \"#utility.yul\":1460:1464   */\n      0x24\n        /* \"#utility.yul\":1457:1458   */\n      0x00\n        /* \"#utility.yul\":1450:1465   */\n      revert\n\n    auxdata: 0xa26469706673582212205e64d021a03013734a6b6bcba9f8f6b15ed33bf20cceddbf67d7ac11cc8931f564736f6c63430008060033\n}\n",
				"bytecode": {
					"linkReferences": {},
					"object": "608060405234801561001057600080fd5b50600080546001600160a01b031916331790556103d4806100326000396000f3fe60806040526004361061004e5760003560e01c806312065fe0146100af57806333a99e04146100d757806335c1d349146100ee578063481c6a75146101265780635ec01e4d1461014657600080fd5b366100aa5734670de0b6b3a76400001461006757600080fd5b6001805480820182556000919091527fb10e2d527612073b26eecdfd717e6a320cf44b4afac2b0732d9fcbe2b7fa0cf60180546001600160a01b03191633179055005b600080fd5b3480156100bb57600080fd5b506100c461018e565b6040519081526020015b60405180910390f35b3480156100e357600080fd5b506100ec6101ab565b005b3480156100fa57600080fd5b5061010e61010936600461034d565b6102a9565b6040516001600160a01b0390911681526020016100ce565b34801561013257600080fd5b5060005461010e906001600160a01b031681565b34801561015257600080fd5b506001546040805144602080830191909152428284015260608083019490945282518083039094018452608090910190915281519101206100c4565b600080546001600160a01b031633146101a657600080fd5b504790565b6000546001600160a01b031633146101c257600080fd5b600154600311156101d257600080fd5b600061021060015460408051446020808301919091524282840152606080830194909452825180830390940184526080909101909152815191012090565b60015490915060009081906102259084610366565b90506001818154811061023a5761023a610388565b6000918252602090912001546001600160a01b03169150816108fc61025d61018e565b6040518115909202916000818181858888f19350505050158015610285573d6000803e3d6000fd5b5060408051600081526020810191829052516102a3916001916102d3565b50505050565b600181815481106102b957600080fd5b6000918252602090912001546001600160a01b0316905081565b828054828255906000526020600020908101928215610328579160200282015b8281111561032857825182546001600160a01b0319166001600160a01b039091161782556020909201916001909101906102f3565b50610334929150610338565b5090565b5b808211156103345760008155600101610339565b60006020828403121561035f57600080fd5b5035919050565b60008261038357634e487b7160e01b600052601260045260246000fd5b500690565b634e487b7160e01b600052603260045260246000fdfea26469706673582212205e64d021a03013734a6b6bcba9f8f6b15ed33bf20cceddbf67d7ac11cc8931f564736f6c63430008060033",
					"opcodes": "PUSH1 0x80 PUSH1 0x40 MSTORE CALLVALUE DUP1 ISZERO PUSH2 0x10 JUMPI PUSH1 0x0 DUP1 REVERT JUMPDEST POP PUSH1 0x0 DUP1 SLOAD PUSH1 0x1 PUSH1 0x1 PUSH1 0xA0 SHL SUB NOT AND CALLER OR SWAP1 SSTORE PUSH2 0x3D4 DUP1 PUSH2 0x32 PUSH1 0x0 CODECOPY PUSH1 0x0 RETURN INVALID PUSH1 0x80 PUSH1 0x40 MSTORE PUSH1 0x4 CALLDATASIZE LT PUSH2 0x4E JUMPI PUSH1 0x0 CALLDATALOAD PUSH1 0xE0 SHR DUP1 PUSH4 0x12065FE0 EQ PUSH2 0xAF JUMPI DUP1 PUSH4 0x33A99E04 EQ PUSH2 0xD7 JUMPI DUP1 PUSH4 0x35C1D349 EQ PUSH2 0xEE JUMPI DUP1 PUSH4 0x481C6A75 EQ PUSH2 0x126 JUMPI DUP1 PUSH4 0x5EC01E4D EQ PUSH2 0x146 JUMPI PUSH1 0x0 DUP1 REVERT JUMPDEST CALLDATASIZE PUSH2 0xAA JUMPI CALLVALUE PUSH8 0xDE0B6B3A7640000 EQ PUSH2 0x67 JUMPI PUSH1 0x0 DUP1 REVERT JUMPDEST PUSH1 0x1 DUP1 SLOAD DUP1 DUP3 ADD DUP3 SSTORE PUSH1 0x0 SWAP2 SWAP1 SWAP2 MSTORE PUSH32 0xB10E2D527612073B26EECDFD717E6A320CF44B4AFAC2B0732D9FCBE2B7FA0CF6 ADD DUP1 SLOAD PUSH1 0x1 PUSH1 0x1 PUSH1 0xA0 SHL SUB NOT AND CALLER OR SWAP1 SSTORE STOP JUMPDEST PUSH1 0x0 DUP1 REVERT JUMPDEST CALLVALUE DUP1 ISZERO PUSH2 0xBB JUMPI PUSH1 0x0 DUP1 REVERT JUMPDEST POP PUSH2 0xC4 PUSH2 0x18E JUMP JUMPDEST PUSH1 0x40 MLOAD SWAP1 DUP2 MSTORE PUSH1 0x20 ADD JUMPDEST PUSH1 0x40 MLOAD DUP1 SWAP2 SUB SWAP1 RETURN JUMPDEST CALLVALUE DUP1 ISZERO PUSH2 0xE3 JUMPI PUSH1 0x0 DUP1 REVERT JUMPDEST POP PUSH2 0xEC PUSH2 0x1AB JUMP JUMPDEST STOP JUMPDEST CALLVALUE DUP1 ISZERO PUSH2 0xFA JUMPI PUSH1 0x0 DUP1 REVERT JUMPDEST POP PUSH2 0x10E PUSH2 0x109 CALLDATASIZE PUSH1 0x4 PUSH2 0x34D JUMP JUMPDEST PUSH2 0x2A9 JUMP JUMPDEST PUSH1 0x40 MLOAD PUSH1 0x1 PUSH1 0x1 PUSH1 0xA0 SHL SUB SWAP1 SWAP2 AND DUP2 MSTORE PUSH1 0x20 ADD PUSH2 0xCE JUMP JUMPDEST CALLVALUE DUP1 ISZERO PUSH2 0x132 JUMPI PUSH1 0x0 DUP1 REVERT JUMPDEST POP PUSH1 0x0 SLOAD PUSH2 0x10E SWAP1 PUSH1 0x1 PUSH1 0x1 PUSH1 0xA0 SHL SUB AND DUP2 JUMP JUMPDEST CALLVALUE DUP1 ISZERO PUSH2 0x152 JUMPI PUSH1 0x0 DUP1 REVERT JUMPDEST POP PUSH1 0x1 SLOAD PUSH1 0x40 DUP1 MLOAD DIFFICULTY PUSH1 0x20 DUP1 DUP4 ADD SWAP2 SWAP1 SWAP2 MSTORE TIMESTAMP DUP3 DUP5 ADD MSTORE PUSH1 0x60 DUP1 DUP4 ADD SWAP5 SWAP1 SWAP5 MSTORE DUP3 MLOAD DUP1 DUP4 SUB SWAP1 SWAP5 ADD DUP5 MSTORE PUSH1 0x80 SWAP1 SWAP2 ADD SWAP1 SWAP2 MSTORE DUP2 MLOAD SWAP2 ADD KECCAK256 PUSH2 0xC4 JUMP JUMPDEST PUSH1 0x0 DUP1 SLOAD PUSH1 0x1 PUSH1 0x1 PUSH1 0xA0 SHL SUB AND CALLER EQ PUSH2 0x1A6 JUMPI PUSH1 0x0 DUP1 REVERT JUMPDEST POP SELFBALANCE SWAP1 JUMP JUMPDEST PUSH1 0x0 SLOAD PUSH1 0x1 PUSH1 0x1 PUSH1 0xA0 SHL SUB AND CALLER EQ PUSH2 0x1C2 JUMPI PUSH1 0x0 DUP1 REVERT JUMPDEST PUSH1 0x1 SLOAD PUSH1 0x3 GT ISZERO PUSH2 0x1D2 JUMPI PUSH1 0x0 DUP1 REVERT JUMPDEST PUSH1 0x0 PUSH2 0x210 PUSH1 0x1 SLOAD PUSH1 0x40 DUP1 MLOAD DIFFICULTY PUSH1 0x20 DUP1 DUP4 ADD SWAP2 SWAP1 SWAP2 MSTORE TIMESTAMP DUP3 DUP5 ADD MSTORE PUSH1 0x60 DUP1 DUP4 ADD SWAP5 SWAP1 SWAP5 MSTORE DUP3 MLOAD DUP1 DUP4 SUB SWAP1 SWAP5 ADD DUP5 MSTORE PUSH1 0x80 SWAP1 SWAP2 ADD SWAP1 SWAP2 MSTORE DUP2 MLOAD SWAP2 ADD KECCAK256 SWAP1 JUMP JUMPDEST PUSH1 0x1 SLOAD SWAP1 SWAP2 POP PUSH1 0x0 SWAP1 DUP2 SWAP1 PUSH2 0x225 SWAP1 DUP5 PUSH2 0x366 JUMP JUMPDEST SWAP1 POP PUSH1 0x1 DUP2 DUP2 SLOAD DUP2 LT PUSH2 0x23A JUMPI PUSH2 0x23A PUSH2 0x388 JUMP JUMPDEST PUSH1 0x0 SWAP2 DUP3 MSTORE PUSH1 0x20 SWAP1 SWAP2 KECCAK256 ADD SLOAD PUSH1 0x1 PUSH1 0x1 PUSH1 0xA0 SHL SUB AND SWAP2 POP DUP2 PUSH2 0x8FC PUSH2 0x25D PUSH2 0x18E JUMP JUMPDEST PUSH1 0x40 MLOAD DUP2 ISZERO SWAP1 SWAP3 MUL SWAP2 PUSH1 0x0 DUP2 DUP2 DUP2 DUP6 DUP9 DUP9 CALL SWAP4 POP POP POP POP ISZERO DUP1 ISZERO PUSH2 0x285 JUMPI RETURNDATASIZE PUSH1 0x0 DUP1 RETURNDATACOPY RETURNDATASIZE PUSH1 0x0 REVERT JUMPDEST POP PUSH1 0x40 DUP1 MLOAD PUSH1 0x0 DUP2 MSTORE PUSH1 0x20 DUP2 ADD SWAP2 DUP3 SWAP1 MSTORE MLOAD PUSH2 0x2A3 SWAP2 PUSH1 0x1 SWAP2 PUSH2 0x2D3 JUMP JUMPDEST POP POP POP POP JUMP JUMPDEST PUSH1 0x1 DUP2 DUP2 SLOAD DUP2 LT PUSH2 0x2B9 JUMPI PUSH1 0x0 DUP1 REVERT JUMPDEST PUSH1 0x0 SWAP2 DUP3 MSTORE PUSH1 0x20 SWAP1 SWAP2 KECCAK256 ADD SLOAD PUSH1 0x1 PUSH1 0x1 PUSH1 0xA0 SHL SUB AND SWAP1 POP DUP2 JUMP JUMPDEST DUP3 DUP1 SLOAD DUP3 DUP3 SSTORE SWAP1 PUSH1 0x0 MSTORE PUSH1 0x20 PUSH1 0x0 KECCAK256 SWAP1 DUP2 ADD SWAP3 DUP3 ISZERO PUSH2 0x328 JUMPI SWAP2 PUSH1 0x20 MUL DUP3 ADD JUMPDEST DUP3 DUP2 GT ISZERO PUSH2 0x328 JUMPI DUP3 MLOAD DUP3 SLOAD PUSH1 0x1 PUSH1 0x1 PUSH1 0xA0 SHL SUB NOT AND PUSH1 0x1 PUSH1 0x1 PUSH1 0xA0 SHL SUB SWAP1 SWAP2 AND OR DUP3 SSTORE PUSH1 0x20 SWAP1 SWAP3 ADD SWAP2 PUSH1 0x1 SWAP1 SWAP2 ADD SWAP1 PUSH2 0x2F3 JUMP JUMPDEST POP PUSH2 0x334 SWAP3 SWAP2 POP PUSH2 0x338 JUMP JUMPDEST POP SWAP1 JUMP JUMPDEST JUMPDEST DUP1 DUP3 GT ISZERO PUSH2 0x334 JUMPI PUSH1 0x0 DUP2 SSTORE PUSH1 0x1 ADD PUSH2 0x339 JUMP JUMPDEST PUSH1 0x0 PUSH1 0x20 DUP3 DUP5 SUB SLT ISZERO PUSH2 0x35F JUMPI PUSH1 0x0 DUP1 REVERT JUMPDEST POP CALLDATALOAD SWAP2 SWAP1 POP JUMP JUMPDEST PUSH1 0x0 DUP3 PUSH2 0x383 JUMPI PUSH4 0x4E487B71 PUSH1 0xE0 SHL PUSH1 0x0 MSTORE PUSH1 0x12 PUSH1 0x4 MSTORE PUSH1 0x24 PUSH1 0x0 REVERT JUMPDEST POP MOD SWAP1 JUMP JUMPDEST PUSH4 0x4E487B71 PUSH1 0xE0 SHL PUSH1 0x0 MSTORE PUSH1 0x32 PUSH1 0x4 MSTORE PUSH1 0x24 PUSH1 0x0 REVERT INVALID LOG2 PUSH5 0x6970667358 0x22 SLT KECCAK256 0x5E PUSH5 0xD021A03013 PUSH20 0x4A6B6BCBA9F8F6B15ED33BF20CCEDDBF67D7AC11 0xCC DUP10 BALANCE CREATE2 PUSH5 0x736F6C6343 STOP ADDMOD MOD STOP CALLER "
				},
				"gasEstimates": {
					"creation": {
						"codeDepositCost": "196000",
						"executionCost": "24473",
						"totalCost": "220473"
					},
					"external": {
						"getBalance()": "2321",
						"manager()": "2381",
						"participants(uint256)": "4636",
						"random()": "2543",
						"selectWinner()": "infinite"
					}
				},
				"methodIdentifiers": {
					"getBalance()": "12065fe0",
					"manager()": "481c6a75",
					"participants(uint256)": "35c1d349",
					"random()": "5ec01e4d",
					"selectWinner()": "33a99e04"
				}
			},
			"storageLayout": {
				"storage": [
					{
						"astId": 3,
						"contract": "Lottery.sol:Lottery",
						"label": "manager",
						"offset": 0,
						"slot": "0",
						"type": "t_address"
					},
					{
						"astId": 6,
						"contract": "Lottery.sol:Lottery",
						"label": "participants",
						"offset": 0,
						"slot": "1",
						"type": "t_array(t_address_payable)dyn_storage"
					}
				],
				"types": {
					"t_address": {
						"encoding": "inplace",
						"label": "address",
						"numberOfBytes": "20"
					},
					"t_address_payable": {
						"encoding": "inplace",
						"label": "address payable",
						"numberOfBytes": "20"
					},
					"t_array(t_address_payable)dyn_storage": {
						"base": "t_address_payable",
						"encoding": "dynamic_array",
						"label": "address payable[]",
						"numberOfBytes": "32"
					}
				}
			},
			"userdoc": {
				"kind": "user",
				"methods": {},
				"version": 1
			}
		}
	}
}